{
  "_format": "hh-sol-artifact-1",
  "contractName": "Proposals",
  "sourceName": "contracts/Proposals.sol",
  "abi": [
    {
      "inputs": [
        {
          "internalType": "contract HackerCouncilToken",
          "name": "_HCR",
          "type": "address"
        }
      ],
      "stateMutability": "nonpayable",
      "type": "constructor"
    },
    {
      "anonymous": false,
      "inputs": [
        {
          "indexed": true,
          "internalType": "string",
          "name": "id",
          "type": "string"
        },
        {
          "indexed": true,
          "internalType": "address",
          "name": "proposer",
          "type": "address"
        },
        {
          "indexed": false,
          "internalType": "uint256",
          "name": "bounty",
          "type": "uint256"
        }
      ],
      "name": "BountyAwarded",
      "type": "event"
    },
    {
      "anonymous": false,
      "inputs": [
        {
          "indexed": true,
          "internalType": "string",
          "name": "id",
          "type": "string"
        }
      ],
      "name": "ProposalCreated",
      "type": "event"
    },
    {
      "anonymous": false,
      "inputs": [
        {
          "indexed": true,
          "internalType": "string",
          "name": "id",
          "type": "string"
        },
        {
          "indexed": true,
          "internalType": "address",
          "name": "user",
          "type": "address"
        },
        {
          "indexed": false,
          "internalType": "uint256",
          "name": "votes",
          "type": "uint256"
        }
      ],
      "name": "Voted",
      "type": "event"
    },
    {
      "inputs": [
        {
          "internalType": "string",
          "name": "id",
          "type": "string"
        }
      ],
      "name": "createProposal",
      "outputs": [],
      "stateMutability": "nonpayable",
      "type": "function"
    },
    {
      "inputs": [
        {
          "internalType": "string",
          "name": "id",
          "type": "string"
        }
      ],
      "name": "getVotes",
      "outputs": [
        {
          "internalType": "uint256",
          "name": "",
          "type": "uint256"
        }
      ],
      "stateMutability": "view",
      "type": "function"
    },
    {
      "inputs": [
        {
          "internalType": "string",
          "name": "proposal",
          "type": "string"
        }
      ],
      "name": "vote",
      "outputs": [],
      "stateMutability": "nonpayable",
      "type": "function"
    }
  ],
  "bytecode": "0x608060405234801561001057600080fd5b5060405161063038038061063083398101604081905261002f91610054565b600080546001600160a01b0319166001600160a01b0392909216919091179055610082565b600060208284031215610065578081fd5b81516001600160a01b038116811461007b578182fd5b9392505050565b61059f806100916000396000f3fe608060405234801561001057600080fd5b50600436106100415760003560e01c806349c2a1a614610046578063805265e51461005b578063fc36e15b14610080575b600080fd5b610059610054366004610421565b610093565b005b61006e610069366004610421565b6101f4565b60405190815260200160405180910390f35b61005961008e366004610421565b61021c565b600080546040516370a0823160e01b81526001600160a01b03909116906370a08231906100c490339060040161051b565b60206040518083038186803b1580156100dc57600080fd5b505afa1580156100f0573d6000803e3d6000fd5b505050506040513d601f19601f8201168201806040525081019061011491906104ca565b116101575760405162461bcd60e51b815260206004820152600e60248201526d43616e6e6f742070726f706f736560901b60448201526064015b60405180910390fd5b60408051808201825260008152336020820152905160019061017a9084906104e2565b90815260405160209181900382018120835181559290910151600190920180546001600160a01b0319166001600160a01b03909316929092179091556101c19082906104e2565b604051908190038120907fe8992a719ba38096a6af646873add24c8172489ca954def1b69b5565eb85c1bf90600090a250565b600060018260405161020691906104e2565b9081526040519081900360200190205492915050565b600080546040516370a0823160e01b81526001600160a01b03909116906370a082319061024d90339060040161051b565b60206040518083038186803b15801561026557600080fd5b505afa158015610279573d6000803e3d6000fd5b505050506040513d601f19601f8201168201806040525081019061029d91906104ca565b116102d85760405162461bcd60e51b815260206004820152600b60248201526a43616e6e6f7420766f746560a81b604482015260640161014e565b6002816040516102e891906104e2565b9081526040805160209281900383019020336000908152925290205460ff16156103445760405162461bcd60e51b815260206004820152600d60248201526c105b1c9958591e481d9bdd1959609a1b604482015260640161014e565b6001808260405161035591906104e2565b90815260200160405180910390206000016000828254610375919061052f565b92505081905550600160028260405161038e91906104e2565b90815260408051602092819003830181203360008181529190945291909120805460ff191693151593909317909255906103c99083906104e2565b60405180910390207f06d72643834bbccea11dfeb41d4aa1a5977f5cb34f87719f71daa6b2b76f29aa60018460405161040291906104e2565b908152604051602091819003820181205481520160405180910390a350565b600060208284031215610432578081fd5b81356001600160401b0380821115610448578283fd5b818401915084601f83011261045b578283fd5b81358181111561046d5761046d610553565b604051601f8201601f19908116603f0116810190838211818310171561049557610495610553565b816040528281528760208487010111156104ad578586fd5b826020860160208301379182016020019490945295945050505050565b6000602082840312156104db578081fd5b5051919050565b60008251815b8181101561050257602081860181015185830152016104e8565b818111156105105782828501525b509190910192915050565b6001600160a01b0391909116815260200190565b6000821982111561054e57634e487b7160e01b81526011600452602481fd5b500190565b634e487b7160e01b600052604160045260246000fdfea264697066735822122009535bab9bd4004fd7aaf12366b6f4895c288d5da9cfb350819f4ad6cd5f3ae864736f6c63430008040033",
  "linkReferences": {},
  "deployedLinkReferences": {}
}