{
  "_format": "hh-sol-artifact-1",
  "contractName": "BlockHackerDAO",
  "sourceName": "contracts/BlockHackerDAO.sol",
  "abi": [
    {
      "inputs": [
        {
          "internalType": "contract IVotes",
          "name": "_token",
          "type": "address"
        },
        {
          "internalType": "contract TimelockController",
          "name": "_timelock",
          "type": "address"
        }
      ],
      "stateMutability": "nonpayable",
      "type": "constructor"
    },
    {
      "inputs": [],
      "name": "Empty",
      "type": "error"
    },
    {
      "anonymous": false,
      "inputs": [
        {
          "indexed": false,
          "internalType": "uint256",
          "name": "proposalId",
          "type": "uint256"
        }
      ],
      "name": "ProposalCanceled",
      "type": "event"
    },
    {
      "anonymous": false,
      "inputs": [
        {
          "indexed": false,
          "internalType": "uint256",
          "name": "proposalId",
          "type": "uint256"
        },
        {
          "indexed": false,
          "internalType": "address",
          "name": "proposer",
          "type": "address"
        },
        {
          "indexed": false,
          "internalType": "address[]",
          "name": "targets",
          "type": "address[]"
        },
        {
          "indexed": false,
          "internalType": "uint256[]",
          "name": "values",
          "type": "uint256[]"
        },
        {
          "indexed": false,
          "internalType": "string[]",
          "name": "signatures",
          "type": "string[]"
        },
        {
          "indexed": false,
          "internalType": "bytes[]",
          "name": "calldatas",
          "type": "bytes[]"
        },
        {
          "indexed": false,
          "internalType": "uint256",
          "name": "startBlock",
          "type": "uint256"
        },
        {
          "indexed": false,
          "internalType": "uint256",
          "name": "endBlock",
          "type": "uint256"
        },
        {
          "indexed": false,
          "internalType": "string",
          "name": "description",
          "type": "string"
        }
      ],
      "name": "ProposalCreated",
      "type": "event"
    },
    {
      "anonymous": false,
      "inputs": [
        {
          "indexed": false,
          "internalType": "uint256",
          "name": "proposalId",
          "type": "uint256"
        }
      ],
      "name": "ProposalExecuted",
      "type": "event"
    },
    {
      "anonymous": false,
      "inputs": [
        {
          "indexed": false,
          "internalType": "uint256",
          "name": "proposalId",
          "type": "uint256"
        },
        {
          "indexed": false,
          "internalType": "uint256",
          "name": "eta",
          "type": "uint256"
        }
      ],
      "name": "ProposalQueued",
      "type": "event"
    },
    {
      "anonymous": false,
      "inputs": [
        {
          "indexed": false,
          "internalType": "uint256",
          "name": "oldProposalThreshold",
          "type": "uint256"
        },
        {
          "indexed": false,
          "internalType": "uint256",
          "name": "newProposalThreshold",
          "type": "uint256"
        }
      ],
      "name": "ProposalThresholdSet",
      "type": "event"
    },
    {
      "anonymous": false,
      "inputs": [
        {
          "indexed": false,
          "internalType": "uint256",
          "name": "oldQuorumNumerator",
          "type": "uint256"
        },
        {
          "indexed": false,
          "internalType": "uint256",
          "name": "newQuorumNumerator",
          "type": "uint256"
        }
      ],
      "name": "QuorumNumeratorUpdated",
      "type": "event"
    },
    {
      "anonymous": false,
      "inputs": [
        {
          "indexed": false,
          "internalType": "address",
          "name": "oldTimelock",
          "type": "address"
        },
        {
          "indexed": false,
          "internalType": "address",
          "name": "newTimelock",
          "type": "address"
        }
      ],
      "name": "TimelockChange",
      "type": "event"
    },
    {
      "anonymous": false,
      "inputs": [
        {
          "indexed": true,
          "internalType": "address",
          "name": "voter",
          "type": "address"
        },
        {
          "indexed": false,
          "internalType": "uint256",
          "name": "proposalId",
          "type": "uint256"
        },
        {
          "indexed": false,
          "internalType": "uint8",
          "name": "support",
          "type": "uint8"
        },
        {
          "indexed": false,
          "internalType": "uint256",
          "name": "weight",
          "type": "uint256"
        },
        {
          "indexed": false,
          "internalType": "string",
          "name": "reason",
          "type": "string"
        }
      ],
      "name": "VoteCast",
      "type": "event"
    },
    {
      "anonymous": false,
      "inputs": [
        {
          "indexed": true,
          "internalType": "address",
          "name": "voter",
          "type": "address"
        },
        {
          "indexed": false,
          "internalType": "uint256",
          "name": "proposalId",
          "type": "uint256"
        },
        {
          "indexed": false,
          "internalType": "uint8",
          "name": "support",
          "type": "uint8"
        },
        {
          "indexed": false,
          "internalType": "uint256",
          "name": "weight",
          "type": "uint256"
        },
        {
          "indexed": false,
          "internalType": "string",
          "name": "reason",
          "type": "string"
        },
        {
          "indexed": false,
          "internalType": "bytes",
          "name": "params",
          "type": "bytes"
        }
      ],
      "name": "VoteCastWithParams",
      "type": "event"
    },
    {
      "anonymous": false,
      "inputs": [
        {
          "indexed": false,
          "internalType": "uint256",
          "name": "oldVotingDelay",
          "type": "uint256"
        },
        {
          "indexed": false,
          "internalType": "uint256",
          "name": "newVotingDelay",
          "type": "uint256"
        }
      ],
      "name": "VotingDelaySet",
      "type": "event"
    },
    {
      "anonymous": false,
      "inputs": [
        {
          "indexed": false,
          "internalType": "uint256",
          "name": "oldVotingPeriod",
          "type": "uint256"
        },
        {
          "indexed": false,
          "internalType": "uint256",
          "name": "newVotingPeriod",
          "type": "uint256"
        }
      ],
      "name": "VotingPeriodSet",
      "type": "event"
    },
    {
      "inputs": [],
      "name": "BALLOT_TYPEHASH",
      "outputs": [
        {
          "internalType": "bytes32",
          "name": "",
          "type": "bytes32"
        }
      ],
      "stateMutability": "view",
      "type": "function"
    },
    {
      "inputs": [],
      "name": "COUNTING_MODE",
      "outputs": [
        {
          "internalType": "string",
          "name": "",
          "type": "string"
        }
      ],
      "stateMutability": "pure",
      "type": "function"
    },
    {
      "inputs": [],
      "name": "EXTENDED_BALLOT_TYPEHASH",
      "outputs": [
        {
          "internalType": "bytes32",
          "name": "",
          "type": "bytes32"
        }
      ],
      "stateMutability": "view",
      "type": "function"
    },
    {
      "inputs": [
        {
          "internalType": "uint256",
          "name": "proposalId",
          "type": "uint256"
        },
        {
          "internalType": "uint8",
          "name": "support",
          "type": "uint8"
        }
      ],
      "name": "castVote",
      "outputs": [
        {
          "internalType": "uint256",
          "name": "",
          "type": "uint256"
        }
      ],
      "stateMutability": "nonpayable",
      "type": "function"
    },
    {
      "inputs": [
        {
          "internalType": "uint256",
          "name": "proposalId",
          "type": "uint256"
        },
        {
          "internalType": "uint8",
          "name": "support",
          "type": "uint8"
        },
        {
          "internalType": "uint8",
          "name": "v",
          "type": "uint8"
        },
        {
          "internalType": "bytes32",
          "name": "r",
          "type": "bytes32"
        },
        {
          "internalType": "bytes32",
          "name": "s",
          "type": "bytes32"
        }
      ],
      "name": "castVoteBySig",
      "outputs": [
        {
          "internalType": "uint256",
          "name": "",
          "type": "uint256"
        }
      ],
      "stateMutability": "nonpayable",
      "type": "function"
    },
    {
      "inputs": [
        {
          "internalType": "uint256",
          "name": "proposalId",
          "type": "uint256"
        },
        {
          "internalType": "uint8",
          "name": "support",
          "type": "uint8"
        },
        {
          "internalType": "string",
          "name": "reason",
          "type": "string"
        }
      ],
      "name": "castVoteWithReason",
      "outputs": [
        {
          "internalType": "uint256",
          "name": "",
          "type": "uint256"
        }
      ],
      "stateMutability": "nonpayable",
      "type": "function"
    },
    {
      "inputs": [
        {
          "internalType": "uint256",
          "name": "proposalId",
          "type": "uint256"
        },
        {
          "internalType": "uint8",
          "name": "support",
          "type": "uint8"
        },
        {
          "internalType": "string",
          "name": "reason",
          "type": "string"
        },
        {
          "internalType": "bytes",
          "name": "params",
          "type": "bytes"
        }
      ],
      "name": "castVoteWithReasonAndParams",
      "outputs": [
        {
          "internalType": "uint256",
          "name": "",
          "type": "uint256"
        }
      ],
      "stateMutability": "nonpayable",
      "type": "function"
    },
    {
      "inputs": [
        {
          "internalType": "uint256",
          "name": "proposalId",
          "type": "uint256"
        },
        {
          "internalType": "uint8",
          "name": "support",
          "type": "uint8"
        },
        {
          "internalType": "string",
          "name": "reason",
          "type": "string"
        },
        {
          "internalType": "bytes",
          "name": "params",
          "type": "bytes"
        },
        {
          "internalType": "uint8",
          "name": "v",
          "type": "uint8"
        },
        {
          "internalType": "bytes32",
          "name": "r",
          "type": "bytes32"
        },
        {
          "internalType": "bytes32",
          "name": "s",
          "type": "bytes32"
        }
      ],
      "name": "castVoteWithReasonAndParamsBySig",
      "outputs": [
        {
          "internalType": "uint256",
          "name": "",
          "type": "uint256"
        }
      ],
      "stateMutability": "nonpayable",
      "type": "function"
    },
    {
      "inputs": [
        {
          "internalType": "address[]",
          "name": "targets",
          "type": "address[]"
        },
        {
          "internalType": "uint256[]",
          "name": "values",
          "type": "uint256[]"
        },
        {
          "internalType": "bytes[]",
          "name": "calldatas",
          "type": "bytes[]"
        },
        {
          "internalType": "bytes32",
          "name": "descriptionHash",
          "type": "bytes32"
        }
      ],
      "name": "execute",
      "outputs": [
        {
          "internalType": "uint256",
          "name": "",
          "type": "uint256"
        }
      ],
      "stateMutability": "payable",
      "type": "function"
    },
    {
      "inputs": [
        {
          "internalType": "address",
          "name": "account",
          "type": "address"
        },
        {
          "internalType": "uint256",
          "name": "blockNumber",
          "type": "uint256"
        }
      ],
      "name": "getVotes",
      "outputs": [
        {
          "internalType": "uint256",
          "name": "",
          "type": "uint256"
        }
      ],
      "stateMutability": "view",
      "type": "function"
    },
    {
      "inputs": [
        {
          "internalType": "address",
          "name": "account",
          "type": "address"
        },
        {
          "internalType": "uint256",
          "name": "blockNumber",
          "type": "uint256"
        },
        {
          "internalType": "bytes",
          "name": "params",
          "type": "bytes"
        }
      ],
      "name": "getVotesWithParams",
      "outputs": [
        {
          "internalType": "uint256",
          "name": "",
          "type": "uint256"
        }
      ],
      "stateMutability": "view",
      "type": "function"
    },
    {
      "inputs": [
        {
          "internalType": "uint256",
          "name": "proposalId",
          "type": "uint256"
        },
        {
          "internalType": "address",
          "name": "account",
          "type": "address"
        }
      ],
      "name": "hasVoted",
      "outputs": [
        {
          "internalType": "bool",
          "name": "",
          "type": "bool"
        }
      ],
      "stateMutability": "view",
      "type": "function"
    },
    {
      "inputs": [
        {
          "internalType": "address[]",
          "name": "targets",
          "type": "address[]"
        },
        {
          "internalType": "uint256[]",
          "name": "values",
          "type": "uint256[]"
        },
        {
          "internalType": "bytes[]",
          "name": "calldatas",
          "type": "bytes[]"
        },
        {
          "internalType": "bytes32",
          "name": "descriptionHash",
          "type": "bytes32"
        }
      ],
      "name": "hashProposal",
      "outputs": [
        {
          "internalType": "uint256",
          "name": "",
          "type": "uint256"
        }
      ],
      "stateMutability": "pure",
      "type": "function"
    },
    {
      "inputs": [],
      "name": "name",
      "outputs": [
        {
          "internalType": "string",
          "name": "",
          "type": "string"
        }
      ],
      "stateMutability": "view",
      "type": "function"
    },
    {
      "inputs": [
        {
          "internalType": "address",
          "name": "",
          "type": "address"
        },
        {
          "internalType": "address",
          "name": "",
          "type": "address"
        },
        {
          "internalType": "uint256[]",
          "name": "",
          "type": "uint256[]"
        },
        {
          "internalType": "uint256[]",
          "name": "",
          "type": "uint256[]"
        },
        {
          "internalType": "bytes",
          "name": "",
          "type": "bytes"
        }
      ],
      "name": "onERC1155BatchReceived",
      "outputs": [
        {
          "internalType": "bytes4",
          "name": "",
          "type": "bytes4"
        }
      ],
      "stateMutability": "nonpayable",
      "type": "function"
    },
    {
      "inputs": [
        {
          "internalType": "address",
          "name": "",
          "type": "address"
        },
        {
          "internalType": "address",
          "name": "",
          "type": "address"
        },
        {
          "internalType": "uint256",
          "name": "",
          "type": "uint256"
        },
        {
          "internalType": "uint256",
          "name": "",
          "type": "uint256"
        },
        {
          "internalType": "bytes",
          "name": "",
          "type": "bytes"
        }
      ],
      "name": "onERC1155Received",
      "outputs": [
        {
          "internalType": "bytes4",
          "name": "",
          "type": "bytes4"
        }
      ],
      "stateMutability": "nonpayable",
      "type": "function"
    },
    {
      "inputs": [
        {
          "internalType": "address",
          "name": "",
          "type": "address"
        },
        {
          "internalType": "address",
          "name": "",
          "type": "address"
        },
        {
          "internalType": "uint256",
          "name": "",
          "type": "uint256"
        },
        {
          "internalType": "bytes",
          "name": "",
          "type": "bytes"
        }
      ],
      "name": "onERC721Received",
      "outputs": [
        {
          "internalType": "bytes4",
          "name": "",
          "type": "bytes4"
        }
      ],
      "stateMutability": "nonpayable",
      "type": "function"
    },
    {
      "inputs": [
        {
          "internalType": "uint256",
          "name": "proposalId",
          "type": "uint256"
        }
      ],
      "name": "proposalDeadline",
      "outputs": [
        {
          "internalType": "uint256",
          "name": "",
          "type": "uint256"
        }
      ],
      "stateMutability": "view",
      "type": "function"
    },
    {
      "inputs": [
        {
          "internalType": "uint256",
          "name": "proposalId",
          "type": "uint256"
        }
      ],
      "name": "proposalEta",
      "outputs": [
        {
          "internalType": "uint256",
          "name": "",
          "type": "uint256"
        }
      ],
      "stateMutability": "view",
      "type": "function"
    },
    {
      "inputs": [
        {
          "internalType": "uint256",
          "name": "proposalId",
          "type": "uint256"
        }
      ],
      "name": "proposalSnapshot",
      "outputs": [
        {
          "internalType": "uint256",
          "name": "",
          "type": "uint256"
        }
      ],
      "stateMutability": "view",
      "type": "function"
    },
    {
      "inputs": [],
      "name": "proposalThreshold",
      "outputs": [
        {
          "internalType": "uint256",
          "name": "",
          "type": "uint256"
        }
      ],
      "stateMutability": "view",
      "type": "function"
    },
    {
      "inputs": [
        {
          "internalType": "uint256",
          "name": "proposalId",
          "type": "uint256"
        }
      ],
      "name": "proposalVotes",
      "outputs": [
        {
          "internalType": "uint256",
          "name": "againstVotes",
          "type": "uint256"
        },
        {
          "internalType": "uint256",
          "name": "forVotes",
          "type": "uint256"
        },
        {
          "internalType": "uint256",
          "name": "abstainVotes",
          "type": "uint256"
        }
      ],
      "stateMutability": "view",
      "type": "function"
    },
    {
      "inputs": [
        {
          "internalType": "address[]",
          "name": "targets",
          "type": "address[]"
        },
        {
          "internalType": "uint256[]",
          "name": "values",
          "type": "uint256[]"
        },
        {
          "internalType": "bytes[]",
          "name": "calldatas",
          "type": "bytes[]"
        },
        {
          "internalType": "string",
          "name": "description",
          "type": "string"
        }
      ],
      "name": "propose",
      "outputs": [
        {
          "internalType": "uint256",
          "name": "",
          "type": "uint256"
        }
      ],
      "stateMutability": "nonpayable",
      "type": "function"
    },
    {
      "inputs": [
        {
          "internalType": "address[]",
          "name": "targets",
          "type": "address[]"
        },
        {
          "internalType": "uint256[]",
          "name": "values",
          "type": "uint256[]"
        },
        {
          "internalType": "bytes[]",
          "name": "calldatas",
          "type": "bytes[]"
        },
        {
          "internalType": "bytes32",
          "name": "descriptionHash",
          "type": "bytes32"
        }
      ],
      "name": "queue",
      "outputs": [
        {
          "internalType": "uint256",
          "name": "",
          "type": "uint256"
        }
      ],
      "stateMutability": "nonpayable",
      "type": "function"
    },
    {
      "inputs": [
        {
          "internalType": "uint256",
          "name": "blockNumber",
          "type": "uint256"
        }
      ],
      "name": "quorum",
      "outputs": [
        {
          "internalType": "uint256",
          "name": "",
          "type": "uint256"
        }
      ],
      "stateMutability": "view",
      "type": "function"
    },
    {
      "inputs": [],
      "name": "quorumDenominator",
      "outputs": [
        {
          "internalType": "uint256",
          "name": "",
          "type": "uint256"
        }
      ],
      "stateMutability": "view",
      "type": "function"
    },
    {
      "inputs": [],
      "name": "quorumNumerator",
      "outputs": [
        {
          "internalType": "uint256",
          "name": "",
          "type": "uint256"
        }
      ],
      "stateMutability": "view",
      "type": "function"
    },
    {
      "inputs": [
        {
          "internalType": "address",
          "name": "target",
          "type": "address"
        },
        {
          "internalType": "uint256",
          "name": "value",
          "type": "uint256"
        },
        {
          "internalType": "bytes",
          "name": "data",
          "type": "bytes"
        }
      ],
      "name": "relay",
      "outputs": [],
      "stateMutability": "nonpayable",
      "type": "function"
    },
    {
      "inputs": [
        {
          "internalType": "uint256",
          "name": "newProposalThreshold",
          "type": "uint256"
        }
      ],
      "name": "setProposalThreshold",
      "outputs": [],
      "stateMutability": "nonpayable",
      "type": "function"
    },
    {
      "inputs": [
        {
          "internalType": "uint256",
          "name": "newVotingDelay",
          "type": "uint256"
        }
      ],
      "name": "setVotingDelay",
      "outputs": [],
      "stateMutability": "nonpayable",
      "type": "function"
    },
    {
      "inputs": [
        {
          "internalType": "uint256",
          "name": "newVotingPeriod",
          "type": "uint256"
        }
      ],
      "name": "setVotingPeriod",
      "outputs": [],
      "stateMutability": "nonpayable",
      "type": "function"
    },
    {
      "inputs": [
        {
          "internalType": "uint256",
          "name": "proposalId",
          "type": "uint256"
        }
      ],
      "name": "state",
      "outputs": [
        {
          "internalType": "enum IGovernor.ProposalState",
          "name": "",
          "type": "uint8"
        }
      ],
      "stateMutability": "view",
      "type": "function"
    },
    {
      "inputs": [
        {
          "internalType": "bytes4",
          "name": "interfaceId",
          "type": "bytes4"
        }
      ],
      "name": "supportsInterface",
      "outputs": [
        {
          "internalType": "bool",
          "name": "",
          "type": "bool"
        }
      ],
      "stateMutability": "view",
      "type": "function"
    },
    {
      "inputs": [],
      "name": "timelock",
      "outputs": [
        {
          "internalType": "address",
          "name": "",
          "type": "address"
        }
      ],
      "stateMutability": "view",
      "type": "function"
    },
    {
      "inputs": [],
      "name": "token",
      "outputs": [
        {
          "internalType": "contract IVotes",
          "name": "",
          "type": "address"
        }
      ],
      "stateMutability": "view",
      "type": "function"
    },
    {
      "inputs": [
        {
          "internalType": "uint256",
          "name": "newQuorumNumerator",
          "type": "uint256"
        }
      ],
      "name": "updateQuorumNumerator",
      "outputs": [],
      "stateMutability": "nonpayable",
      "type": "function"
    },
    {
      "inputs": [
        {
          "internalType": "contract TimelockController",
          "name": "newTimelock",
          "type": "address"
        }
      ],
      "name": "updateTimelock",
      "outputs": [],
      "stateMutability": "nonpayable",
      "type": "function"
    },
    {
      "inputs": [],
      "name": "version",
      "outputs": [
        {
          "internalType": "string",
          "name": "",
          "type": "string"
        }
      ],
      "stateMutability": "view",
      "type": "function"
    },
    {
      "inputs": [],
      "name": "votingDelay",
      "outputs": [
        {
          "internalType": "uint256",
          "name": "",
          "type": "uint256"
        }
      ],
      "stateMutability": "view",
      "type": "function"
    },
    {
      "inputs": [],
      "name": "votingPeriod",
      "outputs": [
        {
          "internalType": "uint256",
          "name": "",
          "type": "uint256"
        }
      ],
      "stateMutability": "view",
      "type": "function"
    },
    {
      "stateMutability": "payable",
      "type": "receive"
    }
  ],
  "bytecode": "0x6101606040523480156200001257600080fd5b5060405162003d2d38038062003d2d833981016040819052620000359162000496565b80601983600161664660006040518060400160405280600e81526020016d426c6f636b4861636b657244414f60901b81525080620000786200017960201b60201c565b815160208084019190912082518383012060e08290526101008190524660a0818152604080517f8b73c3c69bb8fe3d512ecc4cf759cc79239f7b179b0ffacaa9a75d522b39400f81880181905281830187905260608201869052608082019490945230818401528151808203909301835260c00190528051940193909320919290916080523060601b60c0526101205250508251620001219250600091506020840190620003f0565b506200012f90508362000194565b6200013a82620001d5565b62000145816200027c565b50505060601b6001600160601b031916610140526200016481620002bd565b50620001708162000387565b5050506200052a565b6040805180820190915260018152603160f81b602082015290565b60045460408051918252602082018390527fc565b045403dc03c2eea82b81a0465edad9e2e7fc4d97e11421c209da93d7a93910160405180910390a1600455565b600081116200023b5760405162461bcd60e51b815260206004820152602760248201527f476f7665726e6f7253657474696e67733a20766f74696e6720706572696f6420604482015266746f6f206c6f7760c81b60648201526084015b60405180910390fd5b60055460408051918252602082018390527f7e3f7f0708a84de9203036abaa450dccc85ad5ff52f78c170f3edb55cf5e8828910160405180910390a1600555565b60065460408051918252602082018390527fccb45da8d5717e6c4544694297c4ba5cf151d455c9bb0ed4fc7a38411bc05461910160405180910390a1600655565b6064811115620003425760405162461bcd60e51b815260206004820152604360248201527f476f7665726e6f72566f74657351756f72756d4672616374696f6e3a2071756f60448201527f72756d4e756d657261746f72206f7665722071756f72756d44656e6f6d696e616064820152623a37b960e91b608482015260a40162000232565b600880549082905560408051828152602081018490527f0553476bf02ef2726e8ce5ced78d63e26e602e4a2257b1f559418e24b4633997910160405180910390a15050565b600954604080516001600160a01b03928316815291831660208301527f08f74ea46ef7894f65eabfb5e6e695de773a000b47c529ab559178069b226401910160405180910390a1600980546001600160a01b0319166001600160a01b0392909216919091179055565b828054620003fe90620004d4565b90600052602060002090601f0160209004810192826200042257600085556200046d565b82601f106200043d57805160ff19168380011785556200046d565b828001600101855582156200046d579182015b828111156200046d57825182559160200191906001019062000450565b506200047b9291506200047f565b5090565b5b808211156200047b576000815560010162000480565b60008060408385031215620004a9578182fd5b8251620004b68162000511565b6020840151909250620004c98162000511565b809150509250929050565b600181811c90821680620004e957607f821691505b602082108114156200050b57634e487b7160e01b600052602260045260246000fd5b50919050565b6001600160a01b03811681146200052757600080fd5b50565b60805160a05160c05160601c60e05161010051610120516101405160601c61379462000599600039600081816107b201528181611c1a0152611e2201526000611fad01526000611ffc01526000611fd701526000611f3001526000611f5a01526000611f8401526137946000f3fe6080604052600436106101cf5760003560e01c806301ffc9a7146101f757806302a251a31461022c578063034201811461024f57806306f3f9e61461026f57806306fdde031461028f578063150b7a02146102b1578063160cbed7146102f55780632656227d146103155780632d63f693146103285780632fe3e261146103485780633932abb11461036a5780633bccf4fd1461037f5780633e4f49e61461039f57806343859632146103cc578063544ffc9c1461041657806354fd4d501461046b57806356781388146104955780635f398a14146104b557806370b0f660146104d55780637b3c71d3146104f55780637d5e81e21461051557806397c3d334146105355780639a802a6d14610549578063a7713a7014610569578063a890c9101461057e578063ab58fb8e1461059e578063b58131b0146105be578063bc197c81146105d3578063c01f9e37146105ff578063c28bc2fa1461061f578063c59057e41461063f578063d33219b41461065f578063dd4e2ba51461068c578063deaaa7cc146106d2578063ea0217cf146106f4578063eb9019d414610714578063ece40cc114610734578063f23a6e6114610754578063f8ce560a14610780578063fc0c546a146107a057600080fd5b366101f257306101dd6107d4565b6001600160a01b0316146101f057600080fd5b005b600080fd5b34801561020357600080fd5b50610217610212366004612e8f565b6107e3565b60405190151581526020015b60405180910390f35b34801561023857600080fd5b506102416107f4565b604051908152602001610223565b34801561025b57600080fd5b5061024161026a366004612fea565b6107ff565b34801561027b57600080fd5b506101f061028a366004612ed3565b6108e5565b34801561029b57600080fd5b506102a461097d565b6040516102239190613311565b3480156102bd57600080fd5b506102dc6102cc366004612b75565b630a85bd0160e11b949350505050565b6040516001600160e01b03199091168152602001610223565b34801561030157600080fd5b50610241610310366004612d1e565b610a0f565b610241610323366004612d1e565b610c39565b34801561033457600080fd5b50610241610343366004612ed3565b610d42565b34801561035457600080fd5b5061024160008051602061371683398151915281565b34801561037657600080fd5b50610241610d79565b34801561038b57600080fd5b5061024161039a36600461308d565b610d84565b3480156103ab57600080fd5b506103bf6103ba366004612ed3565b610de8565b60405161022391906132e9565b3480156103d857600080fd5b506102176103e7366004612eeb565b60008281526007602090815260408083206001600160a01b038516845260030190915290205460ff1692915050565b34801561042257600080fd5b50610450610431366004612ed3565b6000908152600760205260409020805460018201546002909201549092565b60408051938452602084019290925290820152606001610223565b34801561047757600080fd5b506040805180820190915260018152603160f81b60208201526102a4565b3480156104a157600080fd5b506102416104b0366004612f1a565b610df3565b3480156104c157600080fd5b506102416104d0366004612f84565b610e1c565b3480156104e157600080fd5b506101f06104f0366004612ed3565b610e66565b34801561050157600080fd5b50610241610510366004612f45565b610ef2565b34801561052157600080fd5b50610241610530366004612da9565b610f44565b34801561054157600080fd5b506064610241565b34801561055557600080fd5b50610241610564366004612cc8565b610f5b565b34801561057557600080fd5b50600854610241565b34801561058a57600080fd5b506101f0610599366004612eb7565b610f72565b3480156105aa57600080fd5b506102416105b9366004612ed3565b610ffe565b3480156105ca57600080fd5b506102416110a7565b3480156105df57600080fd5b506102dc6105ee366004612acc565b63bc197c8160e01b95945050505050565b34801561060b57600080fd5b5061024161061a366004612ed3565b6110b2565b34801561062b57600080fd5b506101f061063a366004612c6f565b6110e1565b34801561064b57600080fd5b5061024161065a366004612d1e565b6111ad565b34801561066b57600080fd5b506106746111e7565b6040516001600160a01b039091168152602001610223565b34801561069857600080fd5b506040805180820190915260208082527f737570706f72743d627261766f2671756f72756d3d666f722c6162737461696e908201526102a4565b3480156106de57600080fd5b506102416000805160206136f683398151915281565b34801561070057600080fd5b506101f061070f366004612ed3565b6111f6565b34801561072057600080fd5b5061024161072f366004612c44565b611282565b34801561074057600080fd5b506101f061074f366004612ed3565b6112a3565b34801561076057600080fd5b506102dc61076f366004612bde565b63f23a6e6160e01b95945050505050565b34801561078c57600080fd5b5061024161079b366004612ed3565b61132f565b3480156107ac57600080fd5b506106747f000000000000000000000000000000000000000000000000000000000000000081565b60006107de6111e7565b905090565b60006107ee8261133a565b92915050565b60006107de60055490565b6000806108916108896000805160206137168339815191528c8c8c8c6040516108299291906131cc565b60405180910390208b8051906020012060405160200161086e959493929190948552602085019390935260ff9190911660408401526060830152608082015260a00190565b6040516020818303038152906040528051906020012061135f565b8686866113ad565b90506108d78a828b8b8b8080601f0160208091040260200160405190810160405280939291908181526020018383808284376000920191909152508d92506113cb915050565b9a9950505050505050505050565b6108ed6107d4565b6001600160a01b0316336001600160a01b0316146109265760405162461bcd60e51b815260040161091d90613324565b60405180910390fd5b3061092f6107d4565b6001600160a01b031614610971576000803660405161094f9291906131cc565b604051809103902090505b80610965600261153b565b1461096f5761095a565b505b61097a816115aa565b50565b60606000805461098c9061365e565b80601f01602080910402602001604051908101604052809291908181526020018280546109b89061365e565b8015610a055780601f106109da57610100808354040283529160200191610a05565b820191906000526020600020905b8154815290600101906020018083116109e857829003601f168201915b5050505050905090565b600080610a1e868686866111ad565b90506004610a2b82610de8565b6007811115610a4a57634e487b7160e01b600052602160045260246000fd5b14610a675760405162461bcd60e51b815260040161091d90613397565b6009546040805163793d064960e11b815290516000926001600160a01b03169163f27a0c92916004808301926020929190829003018186803b158015610aac57600080fd5b505afa158015610ac0573d6000803e3d6000fd5b505050506040513d601f19601f82011682018060405250810190610ae49190612e77565b60095460405163b1c5f42760e01b81529192506001600160a01b03169063b1c5f42790610b1e908a908a908a906000908b90600401613243565b60206040518083038186803b158015610b3657600080fd5b505afa158015610b4a573d6000803e3d6000fd5b505050506040513d601f19601f82011682018060405250810190610b6e9190612e77565b6000838152600a60205260408082209290925560095491516308f2a0bb60e41b81526001600160a01b0390921691638f2a0bb091610bb9918b918b918b91908b908990600401613291565b600060405180830381600087803b158015610bd357600080fd5b505af1158015610be7573d6000803e3d6000fd5b505050507f9a2e42fd6722813d69113e7d0079d3d940171428df7373df9c7f7617cfda2892828242610c199190613595565b604051610c279291906134c6565b60405180910390a15095945050505050565b600080610c48868686866111ad565b90506000610c5582610de8565b90506004816007811115610c7957634e487b7160e01b600052602160045260246000fd5b1480610ca457506005816007811115610ca257634e487b7160e01b600052602160045260246000fd5b145b610cc05760405162461bcd60e51b815260040161091d90613397565b600082815260016020818152604092839020600201805460ff191690921790915590518381527f712ae1383f79ac853f8d882153778e0260ef8f03b504e2866e0593e04d2b291f910160405180910390a1610d1e8288888888611673565b610d2b8288888888611731565b610d38828888888861173e565b5095945050505050565b60008181526001602090815260408083208151928301909152546001600160401b0316908190525b6001600160401b031692915050565b60006107de60045490565b604080516000805160206136f6833981519152602082015290810186905260ff851660608201526000908190610dc0906108899060800161086e565b9050610ddd8782886040518060200160405280600081525061176d565b979650505050505050565b60006107ee82611790565b600080339050610e148482856040518060200160405280600081525061176d565b949350505050565b600080339050610ddd87828888888080601f0160208091040260200160405190810160405280939291908181526020018383808284376000920191909152508a92506113cb915050565b610e6e6107d4565b6001600160a01b0316336001600160a01b031614610e9e5760405162461bcd60e51b815260040161091d90613324565b30610ea76107d4565b6001600160a01b031614610ee95760008036604051610ec79291906131cc565b604051809103902090505b80610edd600261153b565b14610ee757610ed2565b505b61097a81611906565b600080339050610f3a86828787878080601f01602080910402602001604051908101604052809392919081815260200183838082843760009201919091525061176d92505050565b9695505050505050565b6000610f5285858585611946565b95945050505050565b6000610f68848484611bf1565b90505b9392505050565b610f7a6107d4565b6001600160a01b0316336001600160a01b031614610faa5760405162461bcd60e51b815260040161091d90613324565b30610fb36107d4565b6001600160a01b031614610ff55760008036604051610fd39291906131cc565b604051809103902090505b80610fe9600261153b565b14610ff357610fde565b505b61097a81611c96565b6009546000828152600a602052604080822054905163d45c443560e01b81526004810191909152909182916001600160a01b039091169063d45c44359060240160206040518083038186803b15801561105657600080fd5b505afa15801561106a573d6000803e3d6000fd5b505050506040513d601f19601f8201168201806040525081019061108e9190612e77565b90508060011461109e5780610f6b565b60009392505050565b60006107de60065490565b60008181526001602081815260408084208151928301909152909101546001600160401b031690819052610d6a565b6110e96107d4565b6001600160a01b0316336001600160a01b0316146111195760405162461bcd60e51b815260040161091d90613324565b306111226107d4565b6001600160a01b03161461116457600080366040516111429291906131cc565b604051809103902090505b80611158600261153b565b146111625761114d565b505b6111a68483838080601f016020809104026020016040519081016040528093929190818152602001838380828437600092019190915250889250611cff915050565b5050505050565b6000848484846040516020016111c694939291906131f8565b60408051601f19818403018152919052805160209091012095945050505050565b6009546001600160a01b031690565b6111fe6107d4565b6001600160a01b0316336001600160a01b03161461122e5760405162461bcd60e51b815260040161091d90613324565b306112376107d4565b6001600160a01b03161461127957600080366040516112579291906131cc565b604051809103902090505b8061126d600261153b565b1461127757611262565b505b61097a81611d25565b6000610f6b838361129e60408051602081019091526000815290565b611bf1565b6112ab6107d4565b6001600160a01b0316336001600160a01b0316146112db5760405162461bcd60e51b815260040161091d90613324565b306112e46107d4565b6001600160a01b03161461132657600080366040516113049291906131cc565b604051809103902090505b8061131a600261153b565b146113245761130f565b505b61097a81611dc5565b60006107ee82611e05565b60006001600160e01b03198216636e665ced60e01b14806107ee57506107ee82611eb8565b60006107ee61136c611f23565b8360405161190160f01b6020820152602281018390526042810182905260009060620160405160208183030381529060405280519060200120905092915050565b60008060006113be8787878761204a565b91509150610d388161212d565b60008581526001602081905260408220906113e588610de8565b600781111561140457634e487b7160e01b600052602160045260246000fd5b1461145d5760405162461bcd60e51b815260206004820152602360248201527f476f7665726e6f723a20766f7465206e6f742063757272656e746c792061637460448201526269766560e81b606482015260840161091d565b604080516020810190915281546001600160401b03169081905260009061148690889086611bf1565b90506114958888888488612329565b83516114e757866001600160a01b03167fb8e138887d0aa13bab447e82de9d5c1777041ecd21ca36ba824ff1e6c07ddda4898884896040516114da94939291906134d4565b60405180910390a2610ddd565b866001600160a01b03167fe2babfbac5889a709b63bb7f598b324e08bc5a4fb9ec647fb3cbc9ec07eb871289888489896040516115289594939291906134fc565b60405180910390a2979650505050505050565b6000611546826124a8565b1561156457604051631ed9509560e11b815260040160405180910390fd5b508054600f90810b80820b820b600090815260018085016020526040822080549290558454920190920b6001600160801b03166001600160801b03199091161790915590565b606481111561162d5760405162461bcd60e51b815260206004820152604360248201527f476f7665726e6f72566f74657351756f72756d4672616374696f6e3a2071756f60448201527f72756d4e756d657261746f72206f7665722071756f72756d44656e6f6d696e616064820152623a37b960e91b608482015260a40161091d565b60088054908290556040517f0553476bf02ef2726e8ce5ced78d63e26e602e4a2257b1f559418e24b46339979061166790839085906134c6565b60405180910390a15050565b3061167c6107d4565b6001600160a01b0316146111a65760005b845181101561172957306001600160a01b03168582815181106116c057634e487b7160e01b600052603260045260246000fd5b60200260200101516001600160a01b03161415611719576117198382815181106116fa57634e487b7160e01b600052603260045260246000fd5b60200260200101518051906020012060026124c190919063ffffffff16565b61172281613699565b905061168d565b505050505050565b6111a68585858585612507565b306117476107d4565b6001600160a01b0316146111a65761175f60026124a8565b6111a65760006002556111a6565b6000610f528585858561178b60408051602081019091526000815290565b6113cb565b60008061179c8361257b565b905060048160078111156117c057634e487b7160e01b600052602160045260246000fd5b146117cb5792915050565b6000838152600a6020526040902054806117e6575092915050565b600954604051632ab0f52960e01b8152600481018390526001600160a01b0390911690632ab0f5299060240160206040518083038186803b15801561182a57600080fd5b505afa15801561183e573d6000803e3d6000fd5b505050506040513d601f19601f820116820180604052508101906118629190612e57565b15611871575060079392505050565b600954604051632c258a9f60e11b8152600481018390526001600160a01b039091169063584b153e9060240160206040518083038186803b1580156118b557600080fd5b505afa1580156118c9573d6000803e3d6000fd5b505050506040513d601f19601f820116820180604052508101906118ed9190612e57565b156118fc575060059392505050565b5060029392505050565b7fc565b045403dc03c2eea82b81a0465edad9e2e7fc4d97e11421c209da93d7a93600454826040516119399291906134c6565b60405180910390a1600455565b60006119506110a7565b61195f3361072f600143613617565b10156119c75760405162461bcd60e51b815260206004820152603160248201527f476f7665726e6f723a2070726f706f73657220766f7465732062656c6f7720706044820152701c9bdc1bdcd85b081d1a1c995cda1bdb19607a1b606482015260840161091d565b60006119dc86868686805190602001206111ad565b905084518651146119ff5760405162461bcd60e51b815260040161091d90613356565b8351865114611a205760405162461bcd60e51b815260040161091d90613356565b6000865111611a6c5760405162461bcd60e51b815260206004820152601860248201527711dbdd995c9b9bdc8e88195b5c1d1e481c1c9bdc1bdcd85b60421b604482015260640161091d565b600081815260016020908152604091829020825191820190925281546001600160401b03169081905215611aec5760405162461bcd60e51b815260206004820152602160248201527f476f7665726e6f723a2070726f706f73616c20616c72656164792065786973746044820152607360f81b606482015260840161091d565b6000611afe611af9610d79565b612687565b611b0743612687565b611b1191906135ad565b90506000611b20611af96107f4565b611b2a90836135ad565b9050611b3683836126f3565b611b4360018401826126f3565b7f7d84a6263ae0d98d3329bd7b46bb4e8d6f98cd35a7adb45c274c8b7fd5ebd5e084338b8b8d516001600160401b03811115611b8f57634e487b7160e01b600052604160045260246000fd5b604051908082528060200260200182016040528015611bc257816020015b6060815260200190600190039081611bad5790505b508c88888e604051611bdc999897969594939291906133d8565b60405180910390a15091979650505050505050565b604051630748d63560e31b81526001600160a01b038481166004830152602482018490526000917f000000000000000000000000000000000000000000000000000000000000000090911690633a46b1a89060440160206040518083038186803b158015611c5e57600080fd5b505afa158015611c72573d6000803e3d6000fd5b505050506040513d601f19601f82011682018060405250810190610f689190612e77565b600954604080516001600160a01b03928316815291831660208301527f08f74ea46ef7894f65eabfb5e6e695de773a000b47c529ab559178069b226401910160405180910390a1600980546001600160a01b0319166001600160a01b0392909216919091179055565b6060610f6884848460405180606001604052806029815260200161373660299139612710565b60008111611d855760405162461bcd60e51b815260206004820152602760248201527f476f7665726e6f7253657474696e67733a20766f74696e6720706572696f6420604482015266746f6f206c6f7760c81b606482015260840161091d565b7f7e3f7f0708a84de9203036abaa450dccc85ad5ff52f78c170f3edb55cf5e882860055482604051611db89291906134c6565b60405180910390a1600555565b7fccb45da8d5717e6c4544694297c4ba5cf151d455c9bb0ed4fc7a38411bc0546160065482604051611df89291906134c6565b60405180910390a1600655565b60006064600854604051632394e7a360e21b8152600481018590527f00000000000000000000000000000000000000000000000000000000000000006001600160a01b031690638e539e8c9060240160206040518083038186803b158015611e6c57600080fd5b505afa158015611e80573d6000803e3d6000fd5b505050506040513d601f19601f82011682018060405250810190611ea49190612e77565b611eae91906135f8565b6107ee91906135d8565b60006001600160e01b0319821663bf26d89760e01b1480611ee957506001600160e01b031982166379dd796f60e01b145b80611f0457506001600160e01b03198216630271189760e51b145b806107ee57506301ffc9a760e01b6001600160e01b03198316146107ee565b6000306001600160a01b037f000000000000000000000000000000000000000000000000000000000000000016148015611f7c57507f000000000000000000000000000000000000000000000000000000000000000046145b15611fa657507f000000000000000000000000000000000000000000000000000000000000000090565b50604080517f00000000000000000000000000000000000000000000000000000000000000006020808301919091527f0000000000000000000000000000000000000000000000000000000000000000828401527f000000000000000000000000000000000000000000000000000000000000000060608301524660808301523060a0808401919091528351808403909101815260c0909201909252805191012090565b6000806fa2a8918ca85bafe22016d0b997e4df60600160ff1b038311156120775750600090506003612124565b8460ff16601b1415801561208f57508460ff16601c14155b156120a05750600090506004612124565b6040805160008082526020820180845289905260ff881692820192909252606081018690526080810185905260019060a0016020604051602081039080840390855afa1580156120f4573d6000803e3d6000fd5b5050604051601f1901519150506001600160a01b03811661211d57600060019250925050612124565b9150600090505b94509492505050565b600081600481111561214f57634e487b7160e01b600052602160045260246000fd5b14156121585750565b600181600481111561217a57634e487b7160e01b600052602160045260246000fd5b14156121c35760405162461bcd60e51b815260206004820152601860248201527745434453413a20696e76616c6964207369676e617475726560401b604482015260640161091d565b60028160048111156121e557634e487b7160e01b600052602160045260246000fd5b14156122335760405162461bcd60e51b815260206004820152601f60248201527f45434453413a20696e76616c6964207369676e6174757265206c656e67746800604482015260640161091d565b600381600481111561225557634e487b7160e01b600052602160045260246000fd5b14156122ae5760405162461bcd60e51b815260206004820152602260248201527f45434453413a20696e76616c6964207369676e6174757265202773272076616c604482015261756560f01b606482015260840161091d565b60048160048111156122d057634e487b7160e01b600052602160045260246000fd5b141561097a5760405162461bcd60e51b815260206004820152602260248201527f45434453413a20696e76616c6964207369676e6174757265202776272076616c604482015261756560f01b606482015260840161091d565b60008581526007602090815260408083206001600160a01b0388168452600381019092529091205460ff16156123b15760405162461bcd60e51b815260206004820152602760248201527f476f7665726e6f72566f74696e6753696d706c653a20766f746520616c726561604482015266191e4818d85cdd60ca1b606482015260840161091d565b6001600160a01b03851660009081526003820160205260408120805460ff1916600117905560ff168460ff16141561240257828160000160008282546123f79190613595565b909155506117299050565b60ff84166001141561242257828160010160008282546123f79190613595565b60ff84166002141561244257828160020160008282546123f79190613595565b60405162461bcd60e51b815260206004820152603560248201527f476f7665726e6f72566f74696e6753696d706c653a20696e76616c69642076616044820152746c756520666f7220656e756d20566f74655479706560581b606482015260840161091d565b54600f81810b810b600160801b909204810b900b131590565b8154600160801b90819004600f90810b80820b820b6000908152600180870160205260409091209490945584549301900b6001600160801b039081169091029116179055565b60095460405163e38335e560e01b81526001600160a01b039091169063e38335e5903490612542908890889088906000908990600401613243565b6000604051808303818588803b15801561255b57600080fd5b505af115801561256f573d6000803e3d6000fd5b50505050505050505050565b6000818152600160205260408120600281015460ff161561259f5750600792915050565b6002810154610100900460ff16156125ba5750600292915050565b60006125c584610d42565b9050806126145760405162461bcd60e51b815260206004820152601d60248201527f476f7665726e6f723a20756e6b6e6f776e2070726f706f73616c206964000000604482015260640161091d565b438110612625575060009392505050565b6000612630856110b2565b905043811061264457506001949350505050565b61264d85612836565b801561266c575060008581526007602052604090208054600190910154115b1561267c57506004949350505050565b506003949350505050565b60006001600160401b038211156126ef5760405162461bcd60e51b815260206004820152602660248201527f53616665436173743a2076616c756520646f65736e27742066697420696e203660448201526534206269747360d01b606482015260840161091d565b5090565b81546001600160401b0319166001600160401b0391909116179055565b6060824710156127715760405162461bcd60e51b815260206004820152602660248201527f416464726573733a20696e73756666696369656e742062616c616e636520666f6044820152651c8818d85b1b60d21b606482015260840161091d565b6001600160a01b0385163b6127c85760405162461bcd60e51b815260206004820152601d60248201527f416464726573733a2063616c6c20746f206e6f6e2d636f6e7472616374000000604482015260640161091d565b600080866001600160a01b031685876040516127e491906131dc565b60006040518083038185875af1925050503d8060008114612821576040519150601f19603f3d011682016040523d82523d6000602084013e612826565b606091505b5091509150610ddd82828661286d565b6000818152600760205260408120600281015460018201546128589190613595565b61286461079b85610d42565b11159392505050565b6060831561287c575081610f6b565b82511561288c5782518084602001fd5b8160405162461bcd60e51b815260040161091d9190613311565b60006001600160401b038311156128bf576128bf6136ca565b6128d2601f8401601f1916602001613542565b90508281528383830111156128e657600080fd5b828260208301376000602084830101529392505050565b600082601f83011261290d578081fd5b8135602061292261291d83613572565b613542565b80838252828201915082860187848660051b8901011115612941578586fd5b855b85811015612968578135612956816136e0565b84529284019290840190600101612943565b5090979650505050505050565b600082601f830112612985578081fd5b8135602061299561291d83613572565b80838252828201915082860187848660051b89010111156129b4578586fd5b855b858110156129685781356001600160401b038111156129d3578788fd5b6129e18a87838c0101612a97565b85525092840192908401906001016129b6565b600082601f830112612a04578081fd5b81356020612a1461291d83613572565b80838252828201915082860187848660051b8901011115612a33578586fd5b855b8581101561296857813584529284019290840190600101612a35565b60008083601f840112612a62578182fd5b5081356001600160401b03811115612a78578182fd5b602083019150836020828501011115612a9057600080fd5b9250929050565b600082601f830112612aa7578081fd5b610f6b838335602085016128a6565b803560ff81168114612ac757600080fd5b919050565b600080600080600060a08688031215612ae3578081fd5b8535612aee816136e0565b94506020860135612afe816136e0565b935060408601356001600160401b0380821115612b19578283fd5b612b2589838a016129f4565b94506060880135915080821115612b3a578283fd5b612b4689838a016129f4565b93506080880135915080821115612b5b578283fd5b50612b6888828901612a97565b9150509295509295909350565b60008060008060808587031215612b8a578384fd5b8435612b95816136e0565b93506020850135612ba5816136e0565b92506040850135915060608501356001600160401b03811115612bc6578182fd5b612bd287828801612a97565b91505092959194509250565b600080600080600060a08688031215612bf5578081fd5b8535612c00816136e0565b94506020860135612c10816136e0565b9350604086013592506060860135915060808601356001600160401b03811115612c38578182fd5b612b6888828901612a97565b60008060408385031215612c56578182fd5b8235612c61816136e0565b946020939093013593505050565b60008060008060608587031215612c84578182fd5b8435612c8f816136e0565b93506020850135925060408501356001600160401b03811115612cb0578283fd5b612cbc87828801612a51565b95989497509550505050565b600080600060608486031215612cdc578081fd5b8335612ce7816136e0565b92506020840135915060408401356001600160401b03811115612d08578182fd5b612d1486828701612a97565b9150509250925092565b60008060008060808587031215612d33578182fd5b84356001600160401b0380821115612d49578384fd5b612d55888389016128fd565b95506020870135915080821115612d6a578384fd5b612d76888389016129f4565b94506040870135915080821115612d8b578384fd5b50612d9887828801612975565b949793965093946060013593505050565b60008060008060808587031215612dbe578182fd5b84356001600160401b0380821115612dd4578384fd5b612de0888389016128fd565b95506020870135915080821115612df5578384fd5b612e01888389016129f4565b94506040870135915080821115612e16578384fd5b612e2288838901612975565b93506060870135915080821115612e37578283fd5b508501601f81018713612e48578182fd5b612bd2878235602084016128a6565b600060208284031215612e68578081fd5b81518015158114610f6b578182fd5b600060208284031215612e88578081fd5b5051919050565b600060208284031215612ea0578081fd5b81356001600160e01b031981168114610f6b578182fd5b600060208284031215612ec8578081fd5b8135610f6b816136e0565b600060208284031215612ee4578081fd5b5035919050565b60008060408385031215612efd578182fd5b823591506020830135612f0f816136e0565b809150509250929050565b60008060408385031215612f2c578182fd5b82359150612f3c60208401612ab6565b90509250929050565b60008060008060608587031215612f5a578182fd5b84359350612f6a60208601612ab6565b925060408501356001600160401b03811115612cb0578283fd5b600080600080600060808688031215612f9b578283fd5b85359450612fab60208701612ab6565b935060408601356001600160401b0380821115612fc6578485fd5b612fd289838a01612a51565b90955093506060880135915080821115612b5b578283fd5b60008060008060008060008060e0898b031215613005578586fd5b8835975061301560208a01612ab6565b965060408901356001600160401b0380821115613030578788fd5b61303c8c838d01612a51565b909850965060608b0135915080821115613054578485fd5b506130618b828c01612a97565b94505061307060808a01612ab6565b925060a0890135915060c089013590509295985092959890939650565b600080600080600060a086880312156130a4578283fd5b853594506130b460208701612ab6565b93506130c260408701612ab6565b94979396509394606081013594506080013592915050565b6000815180845260208085019450808401835b838110156131125781516001600160a01b0316875295820195908201906001016130ed565b509495945050505050565b600081518084526020808501808196508360051b81019150828601855b858110156131645782840389526131528483516131a0565b9885019893509084019060010161313a565b5091979650505050505050565b6000815180845260208085019450808401835b8381101561311257815187529582019590820190600101613184565b600081518084526131b881602086016020860161362e565b601f01601f19169290920160200192915050565b8183823760009101908152919050565b600082516131ee81846020870161362e565b9190910192915050565b60808152600061320b60808301876130da565b828103602084015261321d8187613171565b90508281036040840152613231818661311d565b91505082606083015295945050505050565b60a08152600061325660a08301886130da565b82810360208401526132688188613171565b9050828103604084015261327c818761311d565b60608401959095525050608001529392505050565b60c0815260006132a460c08301896130da565b82810360208401526132b68189613171565b905082810360408401526132ca818861311d565b60608401969096525050608081019290925260a0909101529392505050565b602081016008831061330b57634e487b7160e01b600052602160045260246000fd5b91905290565b602081526000610f6b60208301846131a0565b602080825260189082015277476f7665726e6f723a206f6e6c79476f7665726e616e636560401b604082015260600190565b60208082526021908201527f476f7665726e6f723a20696e76616c69642070726f706f73616c206c656e67746040820152600d60fb1b606082015260800190565b60208082526021908201527f476f7665726e6f723a2070726f706f73616c206e6f74207375636365737366756040820152601b60fa1b606082015260800190565b60006101208b8352602060018060a01b038c16818501528160408501526134018285018c6130da565b91508382036060850152613415828b613171565b915083820360808501528189518084528284019150828160051b850101838c01865b8381101561346557601f198784030185526134538383516131a0565b94860194925090850190600101613437565b505086810360a0880152613479818c61311d565b94505050505061349460c08401876001600160401b03169052565b6001600160401b03851660e08401528281036101008401526134b681856131a0565b9c9b505050505050505050505050565b918252602082015260400190565b84815260ff84166020820152826040820152608060608201526000610f3a60808301846131a0565b85815260ff8516602082015283604082015260a06060820152600061352460a08301856131a0565b828103608084015261353681856131a0565b98975050505050505050565b604051601f8201601f191681016001600160401b038111828210171561356a5761356a6136ca565b604052919050565b60006001600160401b0382111561358b5761358b6136ca565b5060051b60200190565b600082198211156135a8576135a86136b4565b500190565b60006001600160401b038281168482168083038211156135cf576135cf6136b4565b01949350505050565b6000826135f357634e487b7160e01b81526012600452602481fd5b500490565b6000816000190483118215151615613612576136126136b4565b500290565b600082821015613629576136296136b4565b500390565b60005b83811015613649578181015183820152602001613631565b83811115613658576000848401525b50505050565b600181811c9082168061367257607f821691505b6020821081141561369357634e487b7160e01b600052602260045260246000fd5b50919050565b60006000198214156136ad576136ad6136b4565b5060010190565b634e487b7160e01b600052601160045260246000fd5b634e487b7160e01b600052604160045260246000fd5b6001600160a01b038116811461097a57600080fdfe150214d74d59b7d1e90c73fc22ef3d991dd0a76b046543d4d80ab92d2a50328fb3b3f3b703cd84ce352197dcff232b1b5d3cfb2025ce47cf04742d0651f1af88416464726573733a206c6f772d6c6576656c2063616c6c20776974682076616c7565206661696c6564a264697066735822122092b04610930aa3f7e91db8637c241bce790f95bf51ed0d4ec274e0d7cfa31e2264736f6c63430008040033",
  "linkReferences": {},
  "deployedLinkReferences": {}
}